{
  "_format": "hh-sol-artifact-1",
  "contractName": "Airdrop",
  "sourceName": "contracts/Airdrop.sol",
  "abi": [
    {
      "inputs": [],
      "stateMutability": "nonpayable",
      "type": "constructor"
    },
    {
      "inputs": [
        {
          "internalType": "address",
          "name": "",
          "type": "address"
        }
      ],
      "name": "balances",
      "outputs": [
        {
          "internalType": "uint256",
          "name": "",
          "type": "uint256"
        }
      ],
      "stateMutability": "view",
      "type": "function"
    },
    {
      "inputs": [],
      "name": "deposit",
      "outputs": [],
      "stateMutability": "payable",
      "type": "function"
    },
    {
      "inputs": [],
      "name": "owner",
      "outputs": [
        {
          "internalType": "address",
          "name": "",
          "type": "address"
        }
      ],
      "stateMutability": "view",
      "type": "function"
    },
    {
      "inputs": [
        {
          "internalType": "uint256",
          "name": "amount",
          "type": "uint256"
        }
      ],
      "name": "withdraw",
      "outputs": [],
      "stateMutability": "nonpayable",
      "type": "function"
    }
  ],
  "bytecode": "0x6080604052348015600f57600080fd5b50336000806101000a81548173ffffffffffffffffffffffffffffffffffffffff021916908373ffffffffffffffffffffffffffffffffffffffff1602179055506105d58061005f6000396000f3fe60806040526004361061003f5760003560e01c806327e235e3146100445780632e1a7d4d146100815780638da5cb5b146100aa578063d0e30db0146100d5575b600080fd5b34801561005057600080fd5b5061006b6004803603810190610066919061033b565b6100df565b6040516100789190610381565b60405180910390f35b34801561008d57600080fd5b506100a860048036038101906100a391906103c8565b6100f7565b005b3480156100b657600080fd5b506100bf610219565b6040516100cc9190610404565b60405180910390f35b6100dd61023d565b005b60016020528060005260406000206000915090505481565b80600160003373ffffffffffffffffffffffffffffffffffffffff1673ffffffffffffffffffffffffffffffffffffffff168152602001908152602001600020541015610179576040517f08c379a00000000000000000000000000000000000000000000000000000000081526004016101709061047c565b60405180910390fd5b80600160003373ffffffffffffffffffffffffffffffffffffffff1673ffffffffffffffffffffffffffffffffffffffff16815260200190815260200160002060008282546101c891906104cb565b925050819055503373ffffffffffffffffffffffffffffffffffffffff166108fc829081150290604051600060405180830381858888f19350505050158015610215573d6000803e3d6000fd5b5050565b60008054906101000a900473ffffffffffffffffffffffffffffffffffffffff1681565b60003411610280576040517f08c379a00000000000000000000000000000000000000000000000000000000081526004016102779061054b565b60405180910390fd5b34600160003373ffffffffffffffffffffffffffffffffffffffff1673ffffffffffffffffffffffffffffffffffffffff16815260200190815260200160002060008282546102cf919061056b565b92505081905550565b600080fd5b600073ffffffffffffffffffffffffffffffffffffffff82169050919050565b6000610308826102dd565b9050919050565b610318816102fd565b811461032357600080fd5b50565b6000813590506103358161030f565b92915050565b600060208284031215610351576103506102d8565b5b600061035f84828501610326565b91505092915050565b6000819050919050565b61037b81610368565b82525050565b60006020820190506103966000830184610372565b92915050565b6103a581610368565b81146103b057600080fd5b50565b6000813590506103c28161039c565b92915050565b6000602082840312156103de576103dd6102d8565b5b60006103ec848285016103b3565b91505092915050565b6103fe816102fd565b82525050565b600060208201905061041960008301846103f5565b92915050565b600082825260208201905092915050565b7f496e73756666696369656e742062616c616e6365000000000000000000000000600082015250565b600061046660148361041f565b915061047182610430565b602082019050919050565b6000602082019050818103600083015261049581610459565b9050919050565b7f4e487b7100000000000000000000000000000000000000000000000000000000600052601160045260246000fd5b60006104d682610368565b91506104e183610368565b92508282039050818111156104f9576104f861049c565b5b92915050565b7f4d7573742073656e6420736f6d65204554480000000000000000000000000000600082015250565b600061053560128361041f565b9150610540826104ff565b602082019050919050565b6000602082019050818103600083015261056481610528565b9050919050565b600061057682610368565b915061058183610368565b92508282019050808211156105995761059861049c565b5b9291505056fea2646970667358221220fd52ab67217e24d36dda6bc656150e44514a1d7b8351b5fd711f945a135d2cb764736f6c634300081c0033",
  "linkReferences": {},
  "deployedLinkReferences": {}
}